:400000000080002011000000090500000905000008B5044B1A6803F53F5302331A6000F093FA00BFFA46004010B5054C237833B9044B13B10448AFF300800123237010BDCE
:400040009081FF1F00000000704B0000084B10B51BB108490848AFF300800848036803B910BD074B002BFBD0BDE81040184700BF000000009481FF1F704B0000C880FF1FFC
:400080000000000008B500F011FD00F007FC00F075FE00F081FE012008BD00BF08B500F097FC012008BD00BF08B545F6C05393FBF0F00138012180B200F00CFC012008BD52
:4000C00008B5002000F070FE00F080FE00F08AFE08BD00BF0000000070B594B00C46014604A802F069FC0222354904A802F090FC38B9FFF7C7FF334B1A889B782280A370F5
:4001000056E00322304904A802F082FC38B9FFF7C5FF2C4B1A889B782280A37048E002222A4904A802F074FCC0B9FFF7C9FF064621A3D3E900232649684602F03DFC254D96
:4001400040F65D522946684602F036FC32462946204602F031FCFFF7B3FF29E09DF81030462B20D19DF811308DF800309DF812308DF8013000238DF80230684601F068FF0D
:40018000C0B2431EDBB2092B07D8FFF78DFF0D4B1A889B782280A3700AE00F4B1A889B782280A37004E00C4B1A889B782280A370012014B070BD00BF000000E061210940B9
:4001C000784B00007C4B0000804B0000844B0000884B00008C4B0000904B000000B5A1B062B60121002000F025FF00F05BFF0028FBD0022000F0D4FF00F05AFF28B100F0AE
:4002000051FF10B1022000F0CBFF00F04BFF0028F2D0022000F05CFF0128EDD1022000F061FF02460028E7D010A9022000F0CEFF022000F0B5FF694610A8FFF74DFF012098
:4002400000F046FF0128FAD14022694600F05EFFD2E700BFFEE700BFF0B40022174611E050F82760F3B226F0FF0608E001EB420511F812406D78A5550132013BDBB2002BBC
:40028000F4D10137152FEBD9F0BC704708B50A46002101F018FF08BDF8B5194B1B78DBB2184E3478E4B2184F3D78EDB203F00701164A11701B090132137044F003033370B4
:4002C00045F003033B700122114B1A704023114A137002321370102302F28D121370903213702021033211702D3213700A2000F067FA3D7034704422074B1A70F8BD00BF2E
:40030000CF010049F8460040F94600406E5800400D510040095900407658004008B501F0C7FE08BD38B542F6DF622C4B1A80192502331D7004222A492A48FFF7EFFF06228D
:40034000294B1A705222A3F580731A70274B1B78DBB2274A13704FF4E162264B1A8041F25122023B1A8000240CE0234B1B7803F0010343EA440404F003044FF4F07001F056
:400380003BFE013D0DB1032CEFD115B90320FFF761FF1A4A4FF48073138007231370002317490B704820023108701370053213700222144B1A7004220A331A70124A1378C9
:4003C00043F001031370013A137843F001031370013A137843F08003137038BD804000401801004800410040004300400F010049A14600402242004025420040044000401B
:400400000640004001400040A243004038B572B62D4A137843F00403137000240CE02B4D630019194A0011462A44084691882858FFF72CFF0134E4B2062CF0D924494FF016
:400440009040FFF709FF04212248FFF71FFF04212148FFF71BFF214A137843F0020313701032137843F0020313701D4C237843F040032370A2F58632513A137843F010037C
:4004800013700A2217491848FFF748FF0A2217491748FFF743FF082216491748FFF73EFF164A137843F008031370154D61232B70FFF738FF81232B70FFF7EEFE0E22214640
:4004C0001048FFF72BFF38BDE8460040944B000058000048007600400876004003500140A0430040F80000480051004004010048F051004010010048125100402243004037
:4005000000480040B043004008B501F0A5FD03680C2B00D1FEE7FEE708B5094B1A681044084BC31A802B02DC054B186005E001F093FD0C2303604FF0FF32104608BD00BFC9
:40054000CC80FF1F8882FF1F08B5104E104D16E029686B68AC68002204E051F8040B43F8040B0432A242F8D1E868002203E0002143F8041B04328242F9D11035013E002E32
:40058000E6D101F06FFDFFF729FEFEE7010000008857000008B5114A114B1A60114A136843F40073136000230AE0032B03D80E4A52F8231000E00D490D4A42F8231001334B
:4005C0002F2BF2D90B4B1A780B4B1A70084A0B4B1A60FFF71BFF00F013F808BD0004FA050CED00E014ED00E000000000090500000080FF1FBC760040C080FF1F08ED00E00E
:400600000B4A7F2313708021517007E0DA0002F1804202F5F042013BDBB21370002BF5D1DB0003F1804303F5F04300221A707047D080FF1F172815D831B103010A495A5C59
:4006400042F020025A5405E0030107495A5C02F0DF025A540001044A835C43F00103835400207047012070471070004017280BD80001064BC25C02F0FE02C254C25C02F0B3
:40068000DF02C25400207047012070471070004017280BD80001064A835C03F0F103490001F00E011943815400207047012070471070004041F6FF73994201D14FF40051C8
:4006C00041F6FF739A4201D14FF40052172808D8C00000F1804000F5EC408180C280002070470120704700BF172805D8034B03EB0010417200207047012070471070004022
:4007000017281BD810B4C00000F1804404F5EC44D201D2B201F07F01114321709DF804201201D2B203F00F03134363709DF8083003F00F03A3700020E07001E001207047EC
:4007400010BC704710B501F05FFC0A4B5B78182B0BD9084A1478013B5370E30003F1804303F5F0431B78137000E0FF2401F050FC204610BDD080FF1F10F0800F0CD111F48C
:40078000704F0BD1C00000F1804000F5F04001808270C37000207047012070470120704710F0800F08D1C00000F1804000F5F0408180C280002070470120704701BE704775
:4007C00008B5034B1B7A00FB03F001F015FC08BDD880FF1F70B504460E46074B1D681F2802D90020FFF7EAFF04F01F04103455F8240045F8246070BD08ED00E038B50446AD
:400800000D46072902D90020FFF7D8FF1F2C02D90020FFF7D3FF04F01F0000F1604000F564406D01EDB2057038BD00BF134B1B78DBB20360124A127843EA02230360114A15
:40084000127843EA024303600F4A127843EA026303600E4B1B78DBB243600D4A127843EA022343600B4A127843EA024343600A4A127843EA02634360704700BF0301004985
:4008800004010049EC4600400201004901010049000100490501004906010049054A137843F0010313701032137843F001031370704700BFA2430040014B188880B270476D
:4008C00080400040024B187800F00700704700BF8240004070B505460E46FFF7F3FF0446FFF7EAFFA84256D02B4B1B7803F0010294B900B185B938B9284B1D80284A13788E
:4009000003F0BF03137070BD254A137843F040031370224B1D8070BD22B3002321490B7001240F310C7004310B700C390B7803F07F030B701A4B1B7813F0080F00D08DB9DA
:40094000194B18800721013B1970164B1B7813F0010FFAD110490B7803F0FE030B700021104B19700C4B1B7813F0010F0DD00E4B1D800EB1032200E001220A4B1A70094B82
:400980001B7813F0010FFAD170BD044B1D8002490B7813430B7070BDA24300408040004082400040014000400240004010B500F0C7F8064C01212078FFF73CFE012160780D
:4009C000FFF738FE002000F0E5F810BDAC81FF1F10B5054C2078FFF749FE6078FFF746FE00F0BCF810BD00BFAC81FF1F70B505460E464FF48043020C0121084600F064F8BA
:400A0000094C2070A078012302463146FFF7B4FE45F68332A9B2A078FFF7C2FEA1782078FFF762FE70BD00BFAC81FF1F70B505460E464FF48043020C0121084600F062F845
:400A4000094C6070E078012302463146FFF794FE45F68332A9B2E078FFF7A2FEE1786078FFF742FE70BD00BFAC81FF1F10B500F0B9F8022000F080F8042000F0A3F8FFF722
:400A800061FE084CA070FFF75DFEE070064C4FF47A712046FFF7AAFF4FF47A716018FFF7C5FF10BDAC81FF1FC04B000008B5054B1B7923B9FFF7DAFF0122024B1A71FFF78D
:400AC00075FF08BDAC81FF1FF0B583B016461F460B4D00242C700194009423460A4601462046FFF70DFE3A4631462878FFF7E2FD02212878FFF7CCFD287803B0F0BD00BF84
:400B0000E880FF1FF0B583B016461F460B4C012525700023019300930A4601462846FFF7EFFD3A4631462078FFF7C4FD02212078FFF7AEFD207803B0F0BD00BFE980FF1F73
:400B4000054A137843F0080313701032137843F008031370704700BFA8430040054A137803F0F70313701032137803F0F7031370704700BFA8430040054B1A7802F0FD02B0
:400B80001A701A7800F0020010431870704700BF2C580040014B1870704700BF835B0040064B1B78C3F3810303F19243063393F83831DBB2024A1370704700BF2C58004000
:400BC0000B46004008B5064B1A7802F0F3021A701A7800F00C0010431870FFF7E1FF08BD2C58004008B50020074B187001331870064A137843F008031370FFF7E3FF022082
:400C0000FFF7BAFF08BD00BF2C5800409F5A004008B50A280FD00C2802D0082806D102E04FF4805209E04FF4807206E00020FFF7C5FD002201E04FF480620021094B1980A0
:400C400042F2107303FB02F303F6C413064A82FB0302DB17C3EBE223044A1360044B198008BD00BFCA81FF1FAD8BDB68C481FF1FC081FF1F38B501F0C7F905461E4A1378D4
:400C800043F0020313701032137843F0020313701A3A137843F0010313701032137843F00103137002F5AA521A32137843F0030313700424114B1C70013B1A7802F0BF02BA
:400CC0001A701A7842F003021A700822053B1A700222A3F59753123B1A70094A137843F0080313700A20FFF76BFD064B1C60284601F08EF938BD00BFAB4300400E59004043
:400D00002F5B004080E200E010B504460A280DD00C2802D0082804D101E0C42207E0442205E00020FFF74AFDC42200E08422034B1A702046FFF76CFF10BD00BF0A590040EE
:400D400008B5102000F07CF807210220FFF756FD07490220FFF73EFD064A137843F0060313700C20FFF7D0FF0022034B1A8008BD3D0E000009590040C881FF1F08B5054B31
:400D80001B7823B9FFF7DCFF0122024B1A70FFF771FF08BDB181FF1F024A137843F00103137070470859004010B5074B1B7813F0010401D10028F8D024B10120FFF700FD38
:400DC000014B1B78204610BD09590040034B188880B2034B1B88C01A00B27047A25B0040C081FF1F10B4124B1B881BB233B1104B1B881BB203EB83035C0001E00D4B1C6882
:400E00000D4B1988411A09B242F2107303FB01F2002903DD04EBD470401003E004EBD47040104042831893FBF4F000B210BC7047CA81FF1FC481FF1FC881FF1F704700BF9C
:400E4000034B1A7800F0F80010431870704700BF02410040F8B501F0D7F806463C4A137843F0010313701032137843F0010313700125384B1D700227943B1F7002F5E252E3
:400E80001B32137803F07F0313700020FFF798FC314C237803F0F9032370304A137803F0DF03137023782B4323702846FFF788FC2820FFF785FC2A4B1A7802F07F021A707A
:400EC0001A7802F0BF021A7023783B4323703846FFF776FC237843F0040323700024214B1C7001331C70304601F092F807211720FFF784FC1C491720FFF76CFC072118202D
:400F0000FFF77CFC19491820FFF764FC07211520FFF774FC16491520FFF75CFC07212046FFF76CFC13492046FFF754FC07212846FFF764FC10492846FFF74CFC07210C2075
:400F4000FFF75CFC0D490C20FFF744FCF8BD00BFA54300409D6000409443004012600040F851004084600040B11600001D150000AD1600004916000079160000B9160000A3
:400F800008B5204B187000231F4A13701F4A13701F4A13701F4A13701F4A13701F4A13701F4A13701F4B4FF400021A604FF080721A604FF400121A6001221A6002221A600C
:400FC00011B1012906D00BE0174A137803F0FE0313700AE0144A137843F00103137004E0114A137843F00103137003220F4B1A708022203B1A70012000F0FEFF04220C4BB5
:401000001A7008BDDA81FF1FD881FF1F5682FF1F5E82FF1FE181FF1F5D82FF1F5082FF1F5782FF1F00E100E009600040286000401260004038B504460D46064B1B7823B9EB
:40104000FFF708FF0122034B1A7029462046FFF797FF38BDB281FF1F00230A4A13700A4A13700A4A13700A4A13700A4A13700A4A13700A4A13700322094B1A708022203BCD
:401080001A707047D881FF1F5682FF1F5E82FF1FE181FF1F5D82FF1F5082FF1F5782FF1F28600040014B1878704700BF5E82FF1F064B1B7813F0FF0F05D0044B1878C0B2ED
:4010C00000221A7070470020704700BF5682FF1F00EB40008300024A13445878704700BFE481FF1F431EDBB2072B0BD8064B00011A18185C00F00F00537843EA002002389B
:4011000080B2704700207047FC5F0040431EDBB2072B3CD8F0B4074600EB4004A3001C4C2344DB889BB2C3F500739A4208D900EB400293002344DA8892B2C2F5007292B2BC
:4011400000EB4004A300124C2344DB7843EA1223104D04012E192B55D3B2737039B909E0CE5C3D010C4C665501339BB200E000239A42F5D8420002449300054A134400222C
:401180005A705A79D2B20001044B1A54F0BC7047E481FF1FFC5F004078600040FE5F0040431EDBB2072B0BD8420002449300054A134400225A705A79D2B20001024B1A5457
:4011C000704700BFE481FF1FFE5F004070B5D9B1054614460E46C8B1082819D8FFF782FFA04203D22846FFF77DFF0446002305E02901094A525CF25401339BB2A342F7D316
:401200002846FFF7CDFF04E0002402E0002400E00024204670BD00BF786000401D4B19781D4A13889BB20B449BB2138000220FE01A494B681B78DBB2194883544B68013325
:401240004B600132D2B20B889BB2013B9BB20B80124B1B889BB20BB1072AE9D90D4B1B78DBB2082B00D05AB10E490B7883F080030B700F210C4B197002210C4B197004E054
:40128000022309490B7009490B70094B1A70014B1A7070475782FF1FE281FF1FCC81FF1F00600040E081FF1F5582FF1FD881FF1FD981FF1F0222074B1A708022064B1A70A1
:4012C0000F22064B1A700023054A1370054A137001207047D881FF1FE081FF1F5582FF1F5782FF1FD981FF1F08B5FFF797FF08BD10B4194B197801F00F010239C9B2174A0A
:4013000013889BB20B449BB21380002011E0144A5468144B1B5CDBB223705368013353600130C0B20139C9B213889BB2013B9BB213800B4B1B889BB20BB10029E7D10A4B3F
:4013400019700A4A137883F0800313700B22084B1A7010BC704700BF29600040E281FF1FCC81FF1F00600040D981FF1FE081FF1F5582FF1F0623064A1370064A137080228E
:40138000054B1A700022054B1A700120704700BFD881FF1F5582FF1FE081FF1FD981FF1F064B9B6843B1054B9A6810709A6804490988518000229A60704700BFCC81FF1F95
:4013C000E281FF1F08B5134B1A78D2B21A701B78DBB213F0800F02D00F4A137008BD0220FFF7DEFF0D4B1B7803F06003202B05D0402B06D043B900F041FC06E000F00CFEEC
:4014000003E000F0E5FD00E0002010B90322024B1A7008BD286000405582FF1F0060004008B5094B1978094A13889BB20B449BB213800022064B1A700120FFF7B1FF03221B
:40144000044B1A7008BD00BF5782FF1FE281FF1FD881FF1F5582FF1F08B50B4B1B78DBB2042B06D0062B07D0022B0BD1FFF7D8FF08BDFFF73DFF08BD0320FFF791FF03228B
:40148000024B1A7008BD00BFD881FF1F5582FF1F08B50022044B1A700120FFF781FF0322024B1A7008BD00BFD881FF1F5582FF1F08B50B4B1B7813F0FF0F07D0084A1378BF
:4014C00043F0800307490B70002313700022064B1A700120FFF764FF0322044B1A7008BD5D82FF1F08600040D881FF1F5582FF1F08B5094B1B78DBB2042B06D0062B07D03C
:40150000022B07D1FFF7F0FE08BDFFF7C1FF08BDFFF7CEFF08BD00BFD881FF1F08B5284B1B78DBB213F0100F48D013F0800F0CD003F00F03012B16D1FFF744FF214B1B787C
:4015400013F0800F11D1012312E013F0400F03D0FFF7CEFF01230BE013F0200F07D0FFF77BFF012304E0002302E0002300E0002323B3134B1B7813F0800F1FD1124B1B7805
:40158000124A12781343124A13701278D2B2934214D10C4B1B78DBB2094A127812F0800F07D1084B1B78DBB2054A1370137803F00F03044A1278D2B29342EAD108BD00BF46
:4015C000286000405582FF1FE081FF1FD981FF1F296000400022064B1A80064B9B682BB1044A916800230B7092685380704700BFE281FF1FCC81FF1F08B50F4B1B889BB216
:4016000013B9FFF757FE15E002220C4B1A7000220B4B1A70FFF7DEFF0A4AD179937943EA0123054A128892B2934201D2024A1380FFF7F4FD012008BDCC81FF1FD881FF1F66
:40164000E081FF1F006000400122094B1A700F3B9B7C084B1B7B03F00303934204D0054AD37B83F08003D3730122024B5A7370470B600040E481FF1F02220A4B1A700F3B16
:4016800093F82230084B1B7E03F00303012B04D0054AD37E83F08003D3760122024B5A76704700BF0B600040E481FF1F704700BF08B5FFF7D1FC08BD08B500F095FC08BDE7
:4016C00070B588B0054603AC174E0FCE0FC43368237035B322232B7003236B7001A8FFF7A5F8002402231AE008AA224412F81C2C08A901EB121111F8141CE954581C0021D3
:401700002954981C02F00F0208AE324412F8142C2A54DA1CA9540134E4B20433DBB2212BE2D908B070BD00BF9053000010B401233EE019461A010C242148845403EB43004F
:40174000820020480244527912F0FF0F13D003EB430082001B480244127912F0800F04D01801194A024494700AE01801164A02440820907004E01801134A02448020907058
:401780004800084482000F480244D488E4B208010B4901448C71D088C0F30720C871D088C0B20871D288C2F307224A710133DBB2082BBED9FF22054B1A7010BC704700BF7C
:4017C00070600040E481FF1FFC5F00400A600040074B1A78074B03EBC2035B681A7C824204D9C000103018444068704700207047DA81FF1FA4530000F8B5404B1B7813F05E
:40180000FF0F79D03D4B18780138C0B2FFF7E0FF047AC2683A4B1878C0B200236AE01178884264D13749095CC9B25578A9425ED1917801F07F01D67806F00306DFF8C8E008
:401840004D000D44AF000EEB07054FF0000C85F803C092F802C085F804C092F803C00EF807C097882F8192F90250002D0DDA012E01D1072700E00D274E000E44B500224E1C
:4018800035446F7101266E700CE0012E01D1052700E009274E000E44B5001B4E35446F7100266E70DFF868E00F010EEB07060125B57001FA05F529448D00134929440D89B8
:4018C000C5F307250EF807500D89EDB27570CE88F6B20E4D3D44AE71CE88C6F30726EE71CE88F6B22E71C988C1F30721697108320133DBB2A34292D3F8BD00BF5E82FF1F9E
:40190000E181FF1F5882FF1FE481FF1F70600040FC5F0040034B1A78034B03EBC2035868704700BFDA81FF1FA453000008B5084B18780138C0B2FFF74BFF30B142681279D9
:40194000023200EBC203586808BD002008BD00BF5E82FF1F2DE9F041002310E06A4D5900CA189600AC190022AA55A270E2702281A272627034462C4462710133DBB2082BF6
:40198000ECD940B90AE000226049CA546049CA540133DBB200E00023002BF4D05D4B1B7813F0FF0F00F0AD805A4B18780138C0B2FFF70EFF4368DB7913F0400F05D0564A0A
:4019C000137843F00103137004E0534A137803F0FE031370057A012464E0C16800235DE08A7802F07F02944255D1264604EB4407BA00454F3A44128992B28F88BA4207D200
:401A000004EB440E4FEA8E02DFF8FCE0724417810A783E4FBA5CD2B24F78BA423BD191F802C0DFF8E4E07200324497000EEB070282F804C0CA780EF80720CA7802F00302D6
:401A400091F90270002F13DA012A02D14FF0070801E04FF00D08DFF8B0E0720002EB060C4FEA8C07774487F8058001267E7012E0012A02D14FF0050801E04FF00908DFF811
:401A800088E0720002EB060C4FEA8C07774487F8058000267E7008310133DBB2AB429FD30134E4B2082C98D9C06800220CE0837803F07F0310F8084B03EB43039900124BBA
:401AC00019448C720132D2B2AA42F0D3FFF72EFF124B1860002301210FE00B4D4A00501884002C44E380228992B213449BB203F0010213449BB20131C9B20829EDD9FFF7D1
:401B000015FEBDE8F08100BFE481FF1F5882FF1F5482FF1F5E82FF1F5082FF1FDC81FF1F08B5154B1B7903F07F035A1ED2B2072A20D8590019448A0010490A44917841F079
:401B4000010191700021D170517841F002015170127912F0800F05D01B01094A1A448D23937004E01B01064A1A4489239370FFF701FC08BD002008BD00600040E481FF1FB4
:401B8000FC5F0040274B1B7903F07F035A1ED2B2072A44D810B5590019448A0022490A44917801F0FE0191700021D1701F4C1801215C01F07F012154517801F0FD0151704C
:401BC000127912F0800F13D003EB43018A0016490A445278D2B2012A04D1224602440C23937019E01B01114A1A440D23937013E003EB43018A000C490A445278D2B2012A83
:401C000005D11B01094A1A440823937004E01B01064A1A4409239370FFF7ACFB10BD0020704700BF00600040E481FF1FFC5F004010B50E4B1C79E4B20D4B18780138C0B25C
:401C4000FFF7C6FD43681B799C4201D9012C0AD8084A135DDBB208490B55044B9B78DBB21355012010BD002010BD00BF006000405E82FF1F5882FF1F5482FF1F10B59C4B7E
:401C80001B78DBB200219B4A118013F0800F00F0AD80974A5278D2B20A2A00F27481DFE812F06900720172017201720172010B007201920072019A008D4BDB78DBB2012B02
:401CC00009D1FFF727FE42688A4B5A6012221A80FFF792FC10BD864BDB78DBB2022B13D1834B9878FFF774FD002800F04E814268804B5A605A68D1785A68927842EA012254
:401D00001A80FFF779FC10BD794BDB78DBB2032B05D02CE00A7811440133DBB201E000237549734A9278D2B2934203D20A7812F0FF0FEFD16E4B9B7813F0FF0F0BD06C4B0E
:401D40009B78DBB26D4A127C934204D16C4C2046FFF7B6FC21460B7813F0FF0F00F017810B78644A13805160FFF746FC10BD00F053F910BD13F0030317D0022B40F0098131
:401D80005C490B805A4B1B7903F07F0303EB43039A005C4B1A449278D2B25B4B1A7000225A704B60FFF728FC10BD524902230B80564B1A78D2B2544B1A7000225A704B6074
:401DC000FFF71AFC10BD4B4B01221A80504A5A60FFF712FC10BD474A01231380444B1B794C490B445360FFF707FC10BD404A5278013A0A2A00F2CF80DFE812F04C00CD00E4
:401E00009800CD000B00CD00CD00CD001300CD003000374B9B78DBB23F4A1370FFF7AAFA10BD334B9B7803F0FF041BB1601EC0B2FFF7CEFC04B110B9002C40F0AE80344B9C
:401E40001B78DBB29C4206D0314B1C700120334B1870FFF77FFDFFF78DFA10BDFFF7E8FE002800F09C80224A1379DBB21279D2B22B490A702B4AD25CD2B22649CB5CDBB2C7
:401E80009A4204D00122254B1A70FFF7B5FCFFF771FA10BD03F00303012B17D04BB1022B7FD1134B9B7813F0FF0F7CD1FFF76AFE10BD0F4B9B78DBB2012B76D1134A1378AC
:401EC00003F0FD031370FFF755FA10BD084B1B7913F0FF0F6BD1064B98781B79DBB21249CA5C22EA0002CA54FFF744FA10BD00BF00600040CC81FF1FFC530000F054000099
:401F00006082FF1FE481FF1FB481FF1F5082FF1F5E82FF1F5882FF1F5D82FF1F5682FF1FE181FF1F5482FF1F5C82FF1F03F00303012B17D04BB1022B3BD1224B9B7813F0BE
:401F4000FF0F38D1FFF7ECFD10BD1E4B9B78DBB2012B32D11C4A137843F002031370FFF709FA10BD174B1B7913F0FF0F27D1154B98781B79DBB21549CA5C22EA0002CA54B4
:401F8000FFF7F8F910BD002010BD002010BD002010BD002010BD002010BD002010BD002010BD002010BD002010BD002010BD002010BD002010BD002010BD002010BD002057
:401FC00010BD00BF006000405082FF1F5C82FF1F044B1B7813F0800F01D0024B5B780020704700BF00600040024B1878C0F38010704700BF8F4500400230800803D000BF38
:4020000001380046FCD17047EFF3108072B6704780F31088704700BF0B4B1B7803F00303012B02D0022B03D00CE0074B1B7909E0054B1B7903F07F0303EB43039A00034BBB
:402040001A44937A0020704700600040E481FF1F0A22002100F078BD014B1868704700BF4C81FF1F0E4B70B51E460E4C0025E41AA410A54204D056F8253098470135F8E7F7
:4020800003F070FB084B094C1E46E41AA4100025A54204D056F8253098470135F8E770BD7057000070570000705700007857000010B5431E0A44914204D011F8014B03F8D1
:4020C000014FF8E710BD03460244934202D003F8011BFAE770472DE9F04788B0149F002B1E461299B8BF03F1004327F02007B6BF1E4600232D23462F1446109DDDF84CA018
:402100000B7003D0452F03D1013501E0032300E0022307AA049206AA03928DE828042246334600F0A9FD472F804602D1119BDB0728D5462F08EB050911D198F80030302B16
:402140000AD1002200232046314602F0A1FC18B9C5F10105CAF80050DAF800309944002200232046314602F093FC08B9302202E0CDF81C9006E0079B994503D9591C0791FD
:402180001A70F8E74046079B159AC8EB0303136008B0BDE8F087034673B50029B8BF494203F8022BB4BF2D222B22092942701ADD0DF1070216460A2591FBF5F405FB141105
:4021C000092C01F1300102F8011D2146F4DC3031541E02F8011CB4421A460AD214F8012B03F8012BF7E71A463024214402F8024B5970101A02B070BD2DE9F04F91B00C46C5
:40220000DDF8688016461F46054601F0CDFA03681846099300F0F4FB00230E93D8F800300A90073323F0070303F1080294F81890D4F800B0C8F80020D3E90023C4E91223D5
:40224000D4F84CA0D4F848802AF000430B934FF0FF32A74B40460B9902F04CFCA0B94FF0FF32A34B40460B9902F026FC60B9002200234046514602F015FC10B12D2384F851
:4022800043309C4B9C4A0AE0424653464046514602F030FC002800F09281984B984AB9F1470F8CBF90469846032323612BF0040323604FF0000A3DE0B9F1670F00F08A81D9
:4022C000B9F1470F00F0868123600193636800210DF13302059002920093424653460691CDF81090CDF80CE02846FFF7F4FE09F0DF03472B804600F08481B9F1650F0D9905
:4023000000F28D8101394A4604F150000D91FFF742FF0E9A82468318012A236100F37C812268D10700F178819DF8333013B12D2384F84330009733460FAA2146284600F03A
:402340009FF9013002D14FF0FF3096E123685A0501D4236965E0B9F1650F40F2D580D4E912010022002302F093FB78B30123654A31462846B8470130E5D00E9B0D9A9A421E
:402380000BDB2368D80708D423689B0740F111814FF0000804F1190906E10A9B099A31462846B8470130CED04FF0000804F11A090E9B013B9845E7DA01234A463146284646
:4023C000B8470130BFD008F10108F1E70D9B002B29DC01234B4A31462846B8470130B2D00D9B23B90E9B13B92368D907CCD50A9B099A31462846B8470130A4D04FF00009FE
:4024000004F11A0A0D9B5B42994509DA0123524631462846B847013095D009F10109F1E70E9B4246A7E00E9AA36D9A42A8BF1A46002A914606DC4FF0000A29EAE97904F1C2
:402440001A0B11E01346314642462846B8470130F1D178E701235A4631462846B84701303FF471AF0AF1010AA36DC9EB03029245F0DB08EB03090D9A0E9B9A420FDB2368F2
:40248000DA070CD40E9B0D9A9844C9EB08089B1A9845A8BF9846B8F1000F08DC0FE00A9B099A31462846B8470130EBD14BE743464A4631462846B84701303FF444AF4FF02B
:4024C000000928EAE87804F11A0A09E00123524631462846B84701303FF435AF09F101090D9A0E9B9B1AC8EB03039945EEDB4BE7FFFFEF7F04550000085500000C55000059
:4025000010550000145500000E9A012A01DCDB0738D50123424631462846B84701303FF412AF0A9B099A31462846B84701303FF40AAFD4E912010022002302F0A9FA20B1B5
:402540004FF0000804F11A090EE00E9B08F10102013B19E001234A4631462846B84701303FF4F1AE08F101080E9B013B9845F1DB534604F1500231462846B84701307FF4A1
:4025800003AFE0E64246012331462846B8470130EED1D8E601234A4631462846B84701303FF4D1AE08F10108E3680F9A9B1A9845F0DBE0680F9B9842B8BF18465DE06268EF
:4025C0000EA8531C0DF1340E4BF480637FF474AE062201E012B90122626075E6002106910DF133018DE80C00236005904246CDF81090CDF80CE0029153462846FFF76BFD92
:4026000080460D9BD81C02DB626893421DDDA9F102095FFA89F970E60133236184E6B9F1660F14D10029636807DD216113B92268D2071DD501330B4419E013B92268D007A2
:4026400001D5023313E0012311E04FF067090D9B0E9A934205DB22682361D10708D5013305E0002BD4BFC3F102030123134423610D9B4FF0000AA36556E611B0BDE8F08F27
:402680002DE9F04791461F460A698B6806469342B8BF1346C9F8003091F843200C46DDF8208012B10133C9F800302368990642BFD9F800300233C9F80030256815F00605BF
:4026C00010D104F1190A07E00123524639463046C04701301AD00135E368D9F800209B1A9D42F1DB94F843302268003318BF012392060FD5E118302081F843005A1C94F81B
:4027000045102244023382F8431003E04FF0FF30BDE8F08704F1430239463046C0470130F4D02268D9F80050E36802F00602042A08BF5D1B2269A3680CBF25EAE5750025F8
:402740009342C4BF9B1AED184FF000091A344D4509D00123224639463046C0470130D5D009F10109F3E70020BDE8F0872DE9F04317460A7E85B06E2A984606460C460C9BB0
:4027800001F1430E00F0AE8011D8632A22D009D8002A00F0BB80582A40F0CA8081F84520834955E0642A1ED0692A1CD0C0E0732A00F0B08009D86F2A2ED0702A40F0B8806D
:4027C0000A6842F020020A603EE0752A24D0782A3AD0ADE01A6801F14205111D1960136884F84230A8E021681A6811F0800F02D0111D196008E011F0400F02F104011960AF
:4028000002D0B2F9003000E01368002B3CDA2D225B4284F8432037E021681A6811F0800F02D0111D196007E011F0400F02F10401196001D0138800E01368227E5C496F2A0C
:4028400014BF0A2208221BE078225A4984F845202268186812F0800F00F104051D6003D1550601D5038800E00368D00744BF42F0200222601BB9226822F020022260102233
:40288000002084F8430001E049490A226568002DA56008DB206820F0040020602BB9002D7DD175460CE0002B79D07546B3FBF2F002FB1033CB5C05F8013D03460028F5D1FE
:4028C000082A0BD12368DA0708D5236962689A42DEBF302305F8013C05F1FF35C5EB0E0323612EE008681A6810F0800F496903D0101D1860136808E010F0400F02F1040054
:402900001860136801D0198000E0196000232361754616E01A68111D1960156800216268284600F04DFF08B1401B6060636804E004F1420584F8422001232361002384F86A
:402940004330CDF800803B4603AA21463046FFF797FE013002D14FF0FF3026E023692A4639463046C0470130F5D023689B0710D5002504F1190907E001234A4639463046C5
:40298000C0470130E7D00135E368039A9B1A9D42F2DBE068039B9842B8BF184605E00B7804F1420584F842308AE705B0BDE8F08316550000275500000EB400B54FF4027130
:4029C0009CB0ADF814106FF00041049107914FF6FF711DAB02900690084853F8042BADF81610006802A9019301F0E0FA029B00221A701CB05DF804EB03B070474C81FF1F9B
:402A0000034613F8012B002AFBD1181A0138704730B582B1451E013915F8013F11F8014FA34206D1EC431444E04201D0002BF3D11C46181B30BD104630BD00002DE9F0476C
:402A40000F4680463F48D0F800903D4615F8014B09EB0400407800F0080000F0FF0608B12F46F2E72D2C03D1BD1C7C78012603E02B2C04BF7C78BD1C13B1102B0AD15BE0DC
:402A8000302C57D1287800F0DF0058284DD16C7810230235002E14BF4FF0004C6FF0004CBCFBF3FA0027384603FB1ACC09EB040E9EF801E01EF0040F01D0303C0BE01EF0FF
:402AC000030E1BD0BEF1010F0CBF4FF0370E4FF0570ECEEB0404A34210DDB7F1FF3F0AD0504506D801D1644503DC03FB0040012701E04FF0FF3715F8014BD7E77B1C0CD1C1
:402B0000002E4FF0220314BF4FF000406FF00040C8F800302AB9BDE8F08706B1404272B107B1691E1160BDE8F0873024002BB1D10823AFE70A23ADE7302CA3D0AAE7BDE873
:402B4000F08700BF5081FF1F13460A46014602480068FFF773BF00BF4C81FF1F2DE9F74F03690C6980469C427FDC013C01F114074FEA840E00F1140606EB0E0357F824509B
:402B8000019356F824300135B3FBF5F507EB0E09C5B34FF0000A3846B446D34650F8043B9AB205FB02A21B0C4FEA124A05FB03A392B2C2EB0B0BBCF800204FEA134A5A44CE
:402BC0001FFA83FBDCF800308145CBEB134303EB224392B242EA03424FEA234B4CF8042BDCD256F80E306BB9019B043B9E421A4602D3C8F8104005E01268043B002AF8D157
:402C0000013CF3E7404600F0F6FF00282BDB304601354FF0000E57F8042B036891B2C1EB0E0E120C99B27144C2EB134303EB214389B24FEA234EB94541EA034340F8043BB9
:402C4000E9D256F8242006EB840362B9043B9E421A4602D3C8F8104005E01268043B002AF8D1013CF3E7284600E0002003B0BDE8F08F0000000000002DE9F04F456A95B0DA
:402C80008246219CCDE9022345B9102000F090FDCAF82400456085600560C560DAF82430196859B15A68012393404A608B60504600F0C9FDDAF8243000221A60039BA04A7A
:402CC000002BBDBF01232360039B0023BCBF23F000430393DDF80C80A8BF236028F000431B0D1B0593421DD142F20F73209A1360029B43B9934A944BC8F31300002814BFAC
:402D00001846104600E09048229B002B00F04685C37813B100F1080300E0C31C229A136000F03CBDDDE90245002200232046294601F0AEFE074658B1209A01231360229B8A
:402D4000002B00F01E8581481860013800F026BD12AB019313AB009322462B46504600F0C5FFC8F30A56049056B1C5F3130343F07F51204641F44011A6F2FF3611971DE09E
:402D8000139B129E1E4406F23243202B0ADD029A06F21240C3F1400322FA00F008FA03F3184304E0C3F12000029B03FA00F001F091FB0123A1F1F871013E11930022644BE6
:402DC00001F04AFA58A3D3E9002301F0F9FB58A3D3E9002301F042FA044630460D4601F089FB55A3D3E9002301F0EAFB02460B462046294601F032FA04460D4601F090FEFC
:402E00000022834600232046294601F04BFE58B1584601F06FFB02460B462046294601F037FE08B90BF1FF3BBBF1160F0DD8DDE90223484901EBCB01D1E9000101F050FE04
:402E400030B10BF1FF3B002300E00123109300E01090129B9E1B731E079343BFC3F10008002307934FF00008BBF1000F06DB079BCDF82CB05B440793002705E00023CBEBA1
:402E80000808CBF100070B931E9B092B28D8052BC4BF043B1E931E9BC8BF0025A3F10203D8BF0125032B20D8DFE803F0060E0204012302E0012308E000230A931F9B002BA5
:402EC0001DDD9946059321E000230A931F9B0BEB030909F10103012B0593B8BF012315E0012500231E930A9501E001230A934FF0FF390022CDF8149012231F9206E04FF04A
:402F000001094B46CDF81490CDF87C90DAF8244000226260042101F114029A421CD86268490001326260F6E761436F63A787D23FB3C8608B288AC63FFB799F501344D33F22
:402F40000000F07F3956000042560000155500000000F83F505600006168504600F03EFCDAF8243020601B680693059B0E2B00F25B81002D00F05881DDE90234BBF1000FD5
:402F8000CDE90E3430DD9F4A0BF00F034FEA2B1502EBC303E80618CBCDE908340CD5DDE90E01994B05F00F05D3E9082301F032FC0324CDE9020100E00224934E6DB1E907A9
:402FC00008D5DDE90801D6E9002301F0F9FACDE9080101346D100836F0E7DDE90823DDE9020101F017FC20E0CBF1000505B3DDE90E01844B05F00F0203EBC203D3E9002366
:4030000001F0DEFACDE902017F4E2D110023022455B1EA0705D5D6E9002301F0D1FA013401236D100836F3E71BB1CDE9020100E00224109BE3B1DDE902560022734B284627
:40304000314601F02FFD98B1059B8BB1B9F1000F40F3E6800BF1FF330893314600226C4B284601F0ADFA0134CDE902014E4602E0059ECDF820B0204601F03CFADDE9022312
:4030800001F09EFA634B002201F0E8F8A1F1507304460C931D46D6B9DDE9020100225E4B01F0DAF822460C9BCDE9020101F018FD002840F03F820C99224601F10043DDE970
:4030C000020101F0EFFC002840F02B82A8E00A9A4C4B711E002A49D003EBC103D3E9002300204E4901F096FB22462B4601F0B4F8CDE90C01069CDDE9020101F011FD05469F
:4031000001F0F8F902460B46DDE9020101F0A4F8DDE90C23303504F8015BCDE9020101F0C1FC002840F01D83DDE902230020374901F092F8DDE90C2301F0B4FC002840F0B9
:40314000D180069BE31AB3426ADADDE90C0100222F4B01F035FA0022CDE90C01DDE902012B4B01F02DFACDE90201C4E703EBC1012246D1E900012B4601F022FA069BCDE950
:403180000C011D469C19DDE9020101F0C9FC064601F0B0F902460B46DDE9020101F05CF8303605F8016BAC42CDE902014FF0000222D11A4BDDE90C0101F050F802460B462A
:4031C000DDE9020101F08CFC002840F08B80DDE90C230020114901F03FF802460B46DDE9020101F05FFCD8B114F8013C621E302B40F0B7821446F7E7054B01F0E1F9CDE9C6
:403200000201C0E750560000285700000000F03F0000244000001C40000014400000E03FDDE90E34CDE90234139B002B7CDBBBF10E0F79DCAB4B03EBCB03D3E900671F9B8C
:40324000002B14DA059B002B11DC40F06C810022A54B3046394601F0B3F9DDE9022301F035FC059D2E46002840F05F8165E1069CDDE9028932463B464046494601F0CAFA65
:4032800001F04EFC054601F035F932463B4601F097F90B4602464946404600F0DDFF05F1300E069B04F801EBC3EB040E059B73452DD102460B4600F0D1FF8046894602466C
:4032C0000B463046394601F0EDFB78B942464B463046394601F0DCFB002800F04482EB0704D440E2DDF820B000E01C4614F8012C631E392A07D1069A9A42F6D106993022CE
:403300000BF1010B0A701A7801321A702BE20022764B01F055F9002200238046894601F0B7FB0028A6D01EE20A9A002A2BD01E9A012A0ADC119A12B103F2334302E0129B78
:40334000C3F136033D46444613E0059B5D1EAF42BFBF0B9BEA1B9B180B93059BB6BF2F467D1B0025002BA7BF4446059BC3EB08040023079A01211A4450469844079200F0DF
:4033800001FB064602E03D4644460A9E5CB1079B002B08DDA342A8BF2346079AC3EB0808E41AD31A0793002F1DDD0A9BABB18DB131462A46504600F07FFB049A0146064656
:4033C000504600F0E8FA04990890504600F03BFA089B04937A1B06D000E03A460499504600F06AFB04900121504600F0CBFA0B9B05465BB31A460146504600F05DFB1E9BAA
:403400000546012B18DC029B83B9039BC3F3130373B9039B23F000473F0D3F054FB1079B08F1010801330793012702E0002700E0029F0B9B73B100E000272B6905EB83032B
:40344000186900F052FAC0F1200004E01E9B012BD9DD0B9F0120079B184410F01F0008D0C0F12003042B02DDC0F11C0002E006D018461C30079B8044034404440793B8F136
:40348000000F05DD42460499504600F063FB0490079B002B05DD29461A46504600F05AFB0546109B23B32946049800F0A4FB00281EDA00230A220499504600F0DBF90A9BB4
:4034C0000BF1FF3B0490002B00F05F81314600230A22504600F0CEF9B9F1000F06463FDC3BE000BF505600000000144000002440059B002B2BDC1E9B022B28DDDDF8149066
:40350000B9F1000F11D129464B460522504600F0B1F901460546049800F06DFB00280CDC03E0354600E000252E461F9B069C6FEA030B09E03546DDF820B0069B069A5C1CA7
:40354000312313700BF1010B05960026F7E00A9BDDF8149023B9069CB2E01E9B022BCFDC002C05DD31462246504600F0F3FA06469FB17168504600F031F90446326906F1B4
:403580000C01023292000C30FEF792FD01222146504600F0DFFA059000E00596029B069F03F00103079329460498FFF7D7FA3146044600F13008049800F01DFB059A02901B
:4035C0002946504600F033FBC36802463BB901460A90049800F00FFB0A9A034600E00123114650460A9300F02EF90A9B53B91E9A42B9079A32B9B8F1390F2AD0029B002B95
:403600001CDC1DE0029A002A04DB1BD11E9ACAB9079ABAB9002B13DD01220499504600F099FA2946049000F0E6FA002803DC07D118F0010F04D0B8F1390F0AD004F131082A
:403640007C1C0CE0002B07F101040BDDB8F1390F03D139233B70013756E008F1010887F800806CE0069B2746E31A4B4504F8018C3BD000230A220499504600F0FBF8059BFB
:4036800004909E424FF00A024FF000033146504604D100F0EFF80646059084E700F0EAF8002306460A220599504600F0E3F8059079E700230A220499504600F0DBF80490CA
:4036C00029460498FFF74AFA069B00F1300804F8018BE31A4B45ECDB069B0596B9F1010FACBF4B4401331F46002601220499504600F030FA2946049000F07DFA002803DC4F
:4037000015D118F0010F12D03C4614F8013C621E392B09D1069B934204D10BF1010B3123069A02E01446F0E70133137007E03C4614F8013C621E302B01D11446F8E7294608
:40374000504600F080F8059B6BB12EB19E4203D03146504600F077F80599504600F073F801E0DDF820B00499504600F06CF80023209A23700BF101031360229B1BB11C600D
:4037800001E008480AE0069808E0B9F1000F3FF7E2AE1E9B022B7FF7DEAEB1E615B0BDE8F08F00BF14550000004870475481FF1F024B0146186800F041BB00BF4C81FF1FBD
:4037C00010B5C9B202449042034605D01C7801308C42F8D1184610BD002010BD70B5456A04460E463DB91020FFF7E2FF6062456085600560C560656AEB6843B1636ADB6874
:4038000053F8260078B1026843F8262017E021220421204600F0B8FA636AE860DB68002BECD1002070BD012101FA06F56A1D9200204600F0A9FA0028F3D04660856000234C
:403840000361C36070BD70B5446A06460D463CB91020FFF7ADFF7062446084600460C4603DB1736A6A68DB6853F82210296043F8225070BD2DE9F04106460C460D691F46F9
:4038800001F1140E0023DEF80000013381B202FB0171000C0F0C02FB007089B201EB00419D424FEA10474EF8041BECDCD7B1A3689D4212DB616830460131FFF78FFF804673
:4038C000226904F10C01023292000C30FEF7F0FB21463046FFF7B7FF444604EB850301355F6125612046BDE8F081030C1B0413B90004102300E0002310F07F4F04BF000210
:40390000083310F0704F04BF0001043310F0404F04BF80000233002803DB420003D5581C70471846704720207047036813F007020BD0D90722D49A074BBF5B089B080360F8
:4039400003604CBF01200220704799B209B91B0C102213F0FF0F04BF1B0A0832190704BF1B090432990704BF9B080232D90702D45B0805D001320360104670470020704767
:403980002020704710B50C460121FFF727FF01224461026110BD2DE9F74F14460A69236988469A42BEBF0B46A0461C46D8F81070D4F81090D8F80830D8F8041007EB0906A5
:4039C0009E42C8BF0131FFF709FF00F114052B4605EB860C0022634502D243F8042BFAE704F1140208F1140102EB890301EB87070093009B0192934257D9B2F800B0BBF172
:403A0000000F23D08946AE464FF0000859F8044BBEF800A0A3B20BFB03A34FEA144ADEF8004043444FEA14480BFB0A84F24604EB13449BB243EA04434F454FEA14484AF87C
:403A4000043B01D9D646E1E7CEF80480019B0432B3F802A0BAF1000F21D02C4689462B684FF00008B9F800E0B4F802B09BB20AFB0EBEA346F04443EA08434BF8043B59F8A5
:403A8000043BB4F804E01B0C0AFB03E34F4503EB18434FEA134801D95C46E3E763600435A7E75CF8043D13B9013E002EF9DC066103B0BDE8F08F00002DE9F843154612F055
:403AC000030206460F4607D0214C013A002354F82220FFF7CFFE0746AD1036D0746A3CB91020FFF765FE7062446084600460C460D6F82480D8F808404CB940F27121304616
:403B0000FFF740FF04460023C8F8080003604FF00008EB070AD5394622463046FFF73BFF814639463046FFF78EFE4F466D100CD0206808B10446ECE7224621463046FFF74E
:403B40002AFF2060C0F80080F4E73846BDE8F883185700002DE9F0470C460746914626694FEA621A56444968A368751CAB4202DA01315B00FAE73846FFF730FE00238046CC
:403B80001A4600F11401534503DA41F823200133F9E72AEAEA73206901EB830319F01F0904F1140101EB800E14D0C9F1200C002208689A4600FA09F0024343F8042B51F852
:403BC000042B8E4522FA0CF2F2D8CAF8042042B1B51C06E0043B51F8042B8E4543F8042FF9D8013D3846C8F810502146FFF72BFE4046BDE8F08703690A6910B59B1A11D147
:403C000092001430143183180A4453F8044D52F8041D8C4202D007D3012010BD9842F4D3002010BD184610BD4FF0FF3010BD2DE9F8430C460746114620461546FFF7DBFF45
:403C4000061E08D131463846FFF7C8FD012303614661BDE8F883BCBF23462C4638466168BABF1D4601260026FFF7B8FD2B69C660266905F1140904F1140101EB860709EB04
:403C8000830800F114054FF0000C51F8042B59F8044B93B29C44A3B2240CC3EB0C03C4EB124202EB23429BB24FEA224CC84543EA02428E4645F8042BE7D8BE450ED25EF8A6
:403CC000041B8AB26244131403EB114392B242EA03424FEA234C45F8042BEEE755F8043D0BB9013EFAE70661BDE8F8832DE9F3411C4601219046089E099DFFF76FFDC4F3BA
:403D00001302C4F30A5407460CB142F480120192B8F1000F19D002A840F8088DFFF705FE009B48B1019AC0F1200102FA01F10B43C2407B61019200E07B61019B002B14BFDF
:403D400002210121BB61396107E001A8FFF7EDFD019B01217B613961203034B1A4F2334404443460C0F1350009E0A0F2324007EB810330601869FFF7B8FDC0EB41102860FD
:403D8000384602B0BDE8F08138B502FB01F4214600F054F8054618B122460021FEF793F9284638BD38B50546002944D051F8043C0C1F002BB8BFE41800F017FA1E4A13680F
:403DC000114613B96360146030E0A3420DD92268A018834201BF18685B681218226063600C6023E0A24203D813465A68002AF9D118681918A1420BD1216801445818824266
:403E0000196013D110685268014419605A600DE002D90C232B6009E021686018824201BF106852680918216062605C602846BDE8384000F0DBB938BDBC81FF1F70B5CD1CCC
:403E400025F0030508350C2D38BF0C25002D064601DBA94202D90C23336046E000F0C5F9234B1C681A462146A1B10B685B1B0ED40B2B03D90B60CC18CD501EE08C420BBFEC
:403E800063684B681360636018BF0C4615E00C464968E9E7174C23681BB9304600F07AF920602946304600F075F9431C18D0C41C24F00304A0420DD12560304600F096F983
:403EC00004F10B00231D20F00700C31A0ED05A42E25070BD211A304600F05CF90130EBD10C233360304600F081F9002070BD00BFBC81FF1FB881FF1F2DE9F0478E68824667
:403F00009E420C46914698463ED88A8912F4906F3AD02568096902236F1A656905EB450595FBF3F57B1C43449D4238BF1D4653050FD52946FFF782FF064698B13A4621691D
:403F4000FEF7B6F8A38923F4906343F08003A38113E02A4600F04BF9064670B921695046FFF720FF0C23CAF80030A3894FF0FF3043F04003A381BDE8F08726613E4426604D
:403F800046466561ED1BA560464528BF464649463246206800F00EF9A36800209B1BA36023681E442660BDE8F08700002DE9F04F9DB003938B8980461C060D4616460DD5E6
:403FC0000B695BB94021FFF739FF2860286118B90C23C8F80030CDE040236B610023099320238DF82930DFF89CB130238DF82A3037463C4614F8013B1BB9B7EB060910D0EB
:4040000003E0252BF9D02746F3E74B46324629464046FFF771FF013000F0A780099B4B4409933B78002B00F0A08000234FF0FF3204930793059206938DF853301A93012604
:40404000052221784E48FFF7BBFB671C049B38B14B4A3C46801A06FA00F018430490EFE7D90644BF20228DF853201A0744BF2B228DF8532022782A2A03D0079A00210A209B
:404080000BE0039A111D12680391002A10DA524243F00200079204900BE027463B780134303B092B03D800FB02320121F5E701B107923B782E2B1ED17B782A2B0AD1039B44
:4040C00002371A1D1B680392002BB8BF4FF0FF33059310E0002319460593781C0A2407463A780130303A092A03D804FB01210123F5E703B10591032239782248FFF760FB1D
:4041000040B14023CBEB000003FA00F0049B013718430490397806221B487E1C8DF82810FFF74EFB88B1194B33B9039B073323F007030833039314E003AB00932A46144B9D
:4041400004A94046FEF758F807E003AB00932A460F4B04A94046FEF709FBB0F1FF3F824603D0099B5344099342E7AB895B0601D4099801E04FF0FF301DB0BDE8F08F00BF25
:4041800050570000565700005A570000F9210000F93E000038B5064C0023054608462360FCF7BAF9431C02D1236803B12B6038BD8482FF1F884210B501EB020301D8421EB7
:4041C0000BE09842FBD28118D21AD34204D013F8014D01F8014DF8E710BD994204D011F8014B02F8014FF8E710BD70477047F8B5074615460E4621B91146BDE8F840FFF75E
:404200001DBE1AB9FFF7CEFD2846F8BD00F015F885420ED929463846FFF710FE044650B131462A46FDF744FF31463846FFF7BAFD01E03046F8BD2046F8BD51F8040C00289D
:40424000BEBF091851F8043CC01804387047000081F0004102E000BF83F0004330B54FEA41044FEA430594EA050F08BF90EA020F1FBF54EA000C55EA020C7FEA645C7FEA74
:40428000655C00F0E2804FEA5454D4EB5555B8BF6D420CDD2C4480EA020281EA030382EA000083EA010180EA020281EA0303362D88BF30BD11F0004F4FEA01314FF4801C58
:4042C0004CEA113102D0404261EB410113F0004F4FEA03334CEA133302D0524263EB430394EA050F00F0A780A4F10104D5F1200E0DDB02FA0EFC22FA05F2801841F100012A
:4043000003FA0EF2801843FA05F359410EE0A5F120050EF1200E012A03FA0EFC28BF4CF0020C43FA05F3C01851EBE37101F0004507D54FF0000EDCF1000C7EEB00006EEB49
:404340000101B1F5801F1BD3B1F5001F0CD349085FEA30004FEA3C0C04F101044FEA445212F5800F80F09A80BCF1004F08BF5FEA500C50F1000041EB045141EA050130BDE8
:404380005FEA4C0C404141EB010111F4801FA4F10104E9D191F0000F04BF01460020B1FA81F308BF2033A3F10B03B3F120020CDA0C3208DD02F1140CC2F10C0201FA0CF086
:4043C00021FA02F10CE002F11402D8BFC2F1200C01FA02F120FA0CFCDCBF41EA0C019040E41AA2BF01EB0451294330BD6FEA04041F3C1CDA0C340EDC04F11404C4F12002D8
:4044000020FA04F001FA02F340EA030021FA04F345EA030130BDC4F10C04C4F1200220FA02F001FA04F340EA0300294630BD21FA04F0294630BD94F0000F83F4801306BF2F
:4044400081F480110134013D4EE77FEA645C18BF7FEA655C29D094EA050F08BF90EA020F05D054EA000C04BF1946104630BD91EA030F1EBF0021002030BD5FEA545C05D19C
:404480004000494128BF41F0004130BD14F580043CBF01F5801130BD01F0004545F0FE4141F470014FF0000030BD7FEA645C1ABF194610467FEA655C1CBF0B46024650EAE5
:4044C000013406BF52EA033591EA030F41F4002130BD00BF90F0000F04BF0021704730B54FF4806404F132044FF000054FF0000150E700BF90F0000F04BF0021704730B5D5
:404500004FF4806404F1320410F0004548BF40424FF000013EE700BF42004FEAE2014FEA31014FEA02701FBF12F07F4393F07F4F81F06051704792F0000F14BF93F07F4F42
:40454000704730B54FF4607401F0004521F0004120E700BF50EA010208BF704730B54FF000050AE050EA010208BF704730B511F0004502D5404261EB41014FF4806404F183
:4045800032045FEA915C3FF4DCAE4FF003025FEADC0C18BF03325FEADC0C18BF033202EBDC02C2F1200300FA03FC20FA02F001FA03FE40EA0E0021FA02F11444C1E600BF6E
:4045C00070B54FF0FF0C4CF4E06C1CEA11541DBF1CEA135594EA0C0F95EA0C0F00F0DEF82C4481EA030621EA4C5123EA4C5350EA013518BF52EA033541F4801143F480138F
:4046000038D0A0FB02CE4FF00005E1FB02E506F00042E0FB03E54FF00006E1FB03569CF0000F18BF4EF0010EA4F1FF04B6F5007F64F5407404D25FEA4E0E6D4146EB060697
:4046400042EAC62141EA55514FEAC52040EA5E504FEACE2EB4F1FD0C88BFBCF5E06F1ED8BEF1004F08BF5FEA500E50F1000041EB045170BD06F0004646EA010140EA02004B
:4046800081EA0301B4EB5C04C2BFD4EB0C0541EA045170BD41F480114FF0000E013C00F3AB8014F1360FDEBF002001F0004170BDC4F10004203C35DA0C341BDC04F1140452
:4046C000C4F1200500FA05F320FA04F001FA05F240EA020001F0004221F0004110EBD37021FA04F642EB06015EEA430E08BF20EAD37070BDC4F10C04C4F1200500FA04F34C
:4047000020FA05F001FA04F240EA020001F0004110EBD37041F100015EEA430E08BF20EAD37070BDC4F1200500FA05F24EEA020E20FA04F301FA05F243EA020321FA04F079
:4047400001F0004121FA04F220EA020000EBD3705EEA430E08BF20EAD37070BD94F0000F0FD101F00046400041EB010111F4801F08BF013CF7D041EA060195F0000F18BFBE
:40478000704703F00046520043EB030313F4801F08BF013DF7D043EA0603704794EA0C0F0CEA135518BF95EA0C0F0CD050EA410618BF52EA4306D1D181EA030101F00041C0
:4047C0004FF0000070BD50EA410606BF1046194652EA430619D094EA0C0F02D150EA013613D195EA0C0F05D152EA03361CBF104619460AD181EA030101F0004141F0FE41C2
:4048000041F470014FF0000070BD41F0FE4141F4780170BD70B54FF0FF0C4CF4E06C1CEA11541DBF1CEA135594EA0C0F95EA0C0F00F0A7F8A4EB050481EA030E52EA033521
:404840004FEA013100F088804FEA03334FF0805545EA131343EA12634FEA022245EA111545EA10654FEA00260EF000419D4208BF964244F1FD0404F5407402D25B084FEA96
:404880003202B61A65EB03055B084FEA32024FF480104FF4002CB6EB020E75EB030E22BFB61A754640EA0C005B084FEA3202B6EB020E75EB030E22BFB61A754640EA5C00E2
:4048C0005B084FEA3202B6EB020E75EB030E22BFB61A754640EA9C005B084FEA3202B6EB020E75EB030E22BFB61A754640EADC0055EA060E18D04FEA051545EA16754FEAAF
:4049000006164FEAC30343EA52734FEAC2025FEA1C1CC0D111F4801F0BD141EA00014FF000004FF0004CB6E711F4801F04BF01430020B4F1FD0C88BFBCF5E06F3FF6AFAEF6
:40494000B5EB030C04BFB6EB020C5FEA500C50F1000041EB045170BD0EF0004E4EEA113114EB5C04C2BFD4EB0C0541EA045170BD41F480114FF0000E013C90E645EA060E56
:404980008DE60CEA135594EA0C0F08BF95EA0C0F3FF43BAF94EA0C0F0AD150EA01347FF434AF95EA0C0F7FF425AF104619462CE795EA0C0F06D152EA03353FF4FDAE104614
:4049C000194622E750EA410618BF52EA43067FF4C5AE50EA41047FF40DAF52EA43057FF4EBAE12E74FF0FF3C06E000BF4FF0010C02E000BF4FF0010C4DF804CD4FEA410C61
:404A00007FEA6C5C4FEA430C18BF7FEA6C5C1BD001B050EA410C0CBF52EA430C91EA030F02BF90EA020F0020704710F1000F91EA030F58BF994208BF90422CBFD8176FEA31
:404A4000E37040F0010070474FEA410C7FEA6C5C02D150EA013C07D14FEA430C7FEA6C5CD6D152EA033CD3D05DF8040B704700BF8446104662468C461946634600E000BF89
:404A800001B5FFF7B7FF002848BF10F1000F01BD4DF808EDFFF7F4FF0CBF012000205DF808FB00BF4DF808EDFFF7EAFF34BF012000205DF808FB00BF4DF808EDFFF7E0FFDE
:404AC00094BF012000205DF808FB00BF4DF808EDFFF7CEFF94BF012000205DF808FB00BF4DF808EDFFF7C4FF34BF012000205DF808FB00BF4FEA410C7FEA6C5C02D150EA61
:404B0000013C0AD14FEA430C7FEA6C5C02D152EA033C02D14FF0000070474FF0010070474FEA410212F5001215D211D56FF47873B3EB625212D94FEAC12343F0004343EAE9
:404B4000505311F0004F23FA02F018BF404270474FF00000704750EA013005D111F0004008BF6FF0004070474FF00000704700BF0000000000000000534100004F4B0000AB
:404B8000535450005256000025660000256400004E470000205100405000C0510040100000000140001000140140000800400140000A004C014000020050014020000000D2
:404BC000808081828383848586878788898A8A8B8C8D8E8E8F909192929394959596979898999A9B9C9C9D9E9F9FA0A1A2A2A3A4A5A5A6A7A8A8A9AAABABACADAEAEAFB0B9
:404C0000B0B1B2B3B3B4B5B5B6B7B8B8B9BABABBBCBCBDBEBEBFC0C0C1C2C2C3C4C4C5C6C6C7C8C8C9CACACBCBCCCDCDCECFCFD0D0D1D2D2D3D3D4D4D5D6D6D7D7D8D8D910
:404C4000DADADBDBDCDCDDDDDEDEDFDFE0E0E1E1E2E2E3E3E4E4E5E5E6E6E6E7E7E8E8E9E9E9EAEAEBEBEBECECEDEDEDEEEEEFEFEFF0F0F0F1F1F1F2F2F2F3F3F3F3F4F42B
:404C8000F4F5F5F5F5F6F6F6F6F7F7F7F7F8F8F8F8F8F9F9F9F9F9F9FAFAFAFAFAFAFBFBFBFBFBFBFBFBFCFCFCFCFCFCFCFCFCFCFCFCFCFCFCFCFCFCFCFCFCFCFCFCFCFC7E
:404CC000FCFCFCFCFCFCFCFCFCFCFCFCFCFCFCFBFBFBFBFBFBFBFBFAFAFAFAFAFAF9F9F9F9F9F9F8F8F8F8F8F7F7F7F7F6F6F6F6F5F5F5F5F4F4F4F3F3F3F3F2F2F2F1F1A6
:404D0000F1F0F0F0EFEFEFEEEEEDEDEDECECEBEBEBEAEAE9E9E9E8E8E7E7E6E6E6E5E5E4E4E3E3E2E2E1E1E0E0DFDFDEDEDDDDDCDCDBDBDADAD9D8D8D7D7D6D6D5D4D4D3A3
:404D4000D3D2D2D1D0D0CFCFCECDCDCCCBCBCACAC9C8C8C7C6C6C5C4C4C3C2C2C1C0C0BFBEBEBDBCBCBBBABAB9B8B8B7B6B5B5B4B3B3B2B1B0B0AFAEAEADACABABAAA9A89D
:404D8000A8A7A6A5A5A4A3A2A2A1A09F9F9E9D9C9C9B9A999898979695959493929291908F8E8E8D8C8B8A8A898887878685848383828180807F7E7D7C7C7B7A7978787715
:404DC0007675757473727171706F6E6D6D6C6B6A6A696867676665646363626160605F5E5D5D5C5B5A5A595857575655545453525151504F4F4E4D4C4C4B4A4A4948474735
:404E0000464545444343424141403F3F3E3D3D3C3B3B3A393938373736353534343332323130302F2F2E2D2D2C2C2B2B2A29292828272726252524242323222221212020F8
:404E40001F1F1E1E1D1D1C1C1B1B1A1A191919181817171616161515141414131312121211111010100F0F0F0E0E0E0D0D0D0C0C0C0C0B0B0B0A0A0A0A09090909080808AA
:404E800008070707070706060606060605050505050504040404040404040303030303030303030303030303030303030303030303030303030303030303030303030303F3
:404EC0000303030404040404040404050505050505060606060606070707070708080808090909090A0A0A0A0B0B0B0C0C0C0C0D0D0D0E0E0E0F0F0F101010111112121261
:404F000013131414141515161616171718181919191A1A1B1B1C1C1D1D1E1E1F1F202021212222232324242525262727282829292A2B2B2C2C2D2D2E2F2F3030313232330A
:404F4000343435353637373839393A3B3B3C3D3D3E3F3F40414142434344454546474748494A4A4B4C4C4D4E4F4F505151525354545556575758595A5A5B5C5D5D5E5F60F7
:404F80006061626363646566676768696A6A6B6C6D6D6E6F707171727374757576777878797A7B7C7C7D7E7F808081828383848586878788898A8A8B8C8D8E8E8F909192B9
:404FC000929394959596979898999A9B9C9C9D9E9F9FA0A1A2A2A3A4A5A5A6A7A8A8A9AAABABACADAEAEAFB0B0B1B2B3B3B4B5B5B6B7B8B8B9BABABBBCBCBDBEBEBFC0C036
:40500000C1C2C2C3C4C4C5C6C6C7C8C8C9CACACBCBCCCDCDCECFCFD0D0D1D2D2D3D3D4D4D5D6D6D7D7D8D8D9DADADBDBDCDCDDDDDEDEDFDFE0E0E1E1E2E2E3E3E4E4E5E564
:40504000E6E6E6E7E7E8E8E9E9E9EAEAEBEBEBECECEDEDEDEEEEEFEFEFF0F0F0F1F1F1F2F2F2F3F3F3F3F4F4F4F5F5F5F5F6F6F6F6F7F7F7F7F8F8F8F8F8F9F9F9F9F9F9F1
:40508000FAFAFAFAFAFAFBFBFBFBFBFBFBFBFCFCFCFCFCFCFCFCFCFCFCFCFCFCFCFCFCFCFCFCFCFCFCFCFCFCFCFCFCFCFCFCFCFCFCFCFCFCFCFCFCFBFBFBFBFBFBFBFBFA0E
:4050C000FAFAFAFAFAF9F9F9F9F9F9F8F8F8F8F8F7F7F7F7F6F6F6F6F5F5F5F5F4F4F4F3F3F3F3F2F2F2F1F1F1F0F0F0EFEFEFEEEEEDEDEDECECEBEBEBEAEAE9E9E9E8E80F
:40510000E7E7E6E6E6E5E5E4E4E3E3E2E2E1E1E0E0DFDFDEDEDDDDDCDCDBDBDADAD9D8D8D7D7D6D6D5D4D4D3D3D2D2D1D0D0CFCFCECDCDCCCBCBCACAC9C8C8C7C6C6C5C4AF
:40514000C4C3C2C2C1C0C0BFBEBEBDBCBCBBBABAB9B8B8B7B6B5B5B4B3B3B2B1B0B0AFAEAEADACABABAAA9A8A8A7A6A5A5A4A3A2A2A1A09F9F9E9D9C9C9B9A9998989796CB
:4051800095959493929291908F8E8E8D8C8B8A8A898887878685848383828180807F7E7D7C7C7B7A797878777675757473727171706F6E6D6D6C6B6A6A69686767666564BD
:4051C0006363626160605F5E5D5D5C5B5A5A595857575655545453525151504F4F4E4D4C4C4B4A4A49484747464545444343424141403F3F3E3D3D3C3B3B3A393938373794
:4052000036353534343332323130302F2F2E2D2D2C2C2B2B2A292928282727262525242423232222212120201F1F1E1E1D1D1C1C1B1B1A1A19191918181717161616151561
:40524000141414131312121211111010100F0F0F0E0E0E0D0D0D0C0C0C0C0B0B0B0A0A0A0A090909090808080807070707070606060606060505050505050404040404048C
:405280000404030303030303030303030303030303030303030303030303030303030303030303030303030303030304040404040404040505050505050606060606060702
:4052C0000707070708080808090909090A0A0A0A0B0B0B0C0C0C0C0D0D0D0E0E0E0F0F0F101010111112121213131414141515161616171718181919191A1A1B1B1C1C1D99
:405300001D1E1E1F1F202021212222232324242525262727282829292A2B2B2C2C2D2D2E2F2F303031323233343435353637373839393A3B3B3C3D3D3E3F3F4041414243B3
:405340004344454546474748494A4A4B4C4C4D4E4F4F505151525354545556575758595A5A5B5C5D5D5E5F606061626363646566676768696A6A6B6C6D6D6E6F707171729F
:405380007374757576777878797A7B7C7C7D7E7F303132333435363738394142434445460000000001000000AC53000001000000F054000000000000000000000100000077
:4053C000C453000001000000D054000002000000E8530000000000000000000000000000E453000000000000000081024000000000000202400000000203000004030904DD
:405400002C0343007900700072006500730073002000530065006D00690063006F006E0064007500630074006F00720010035500530042005500410052005400380343001E
:4054400044004300200043006F006D006D0075006E00690063006100740069006F006E00200049006E00740065007200660061006300650026034300440043002000440027
:40548000610074006100200049006E0074006500720066006100630065000C03520054005F0041004400100355005300420043004F004D004D001803570061007600650095
:4054C00046006F0072006D00470065006E00000009022000010103803209040000020000000607058102400000070502024000001201000202000008B40432F201000107E4
:4055000080014300494E4600696E66004E414E006E616E0030003031323334353637383941424344454600303132333435363738396162636465660000202020202020205F
:40554000202028282828282020202020202020202020202020202020208810101010101010101010101010101004040404040404040404101010101010104141414141414D
:405580000101010101010101010101010101010101010101101010101010424242424242020202020202020202020202020202020202020210101010200000000000000063
:4055C00000000000000000000000000000000000000000000000000000000000000000000000000000000000000000000000000000000000000000000000000000000000AB
:40560000000000000000000000000000000000000000000000000000000000000000000000000000000000000000000000000000000000000000000000496E66696E697499
:4056400079004E614E00504F534958002E000000000000000000F03F000000000000244000000000000059400000000000408F40000000000088C34000000000006AF8408B
:405680000000000080842E4100000000D01263410000000084D797410000000065CDCD41000000205FA00242000000E876483742000000A2941A6D42000040E59C30A24228
:4056C0000000901EC4BCD64200003426F56B0C430080E03779C3414300A0D8855734764300C84E676DC1AB43003D9160E458E143408CB5781DAF154450EFE2D6E41A4B44FA
:4057000092D54D06CFF08044F64AE1C7022DB544B49DD9794378EA4405000000190000007D000000000000000080E03779C34143176E05B5B5B89346F5F93FE9034F384D2C
:40574000321D30F94877825A3CBF737FDD4F1575232D302B2000686C4C0065666745464700000000F8B500BFF8BC08BC9E4670474D00000095050000F8B500BFF8BC08BC3A
:405780009E4670472900000098570000C880FF1FC8000000F8000000000000008882FF1F7F800000030000000000E02EC05D00001800000000366E01FFFF00000000000000
:4057C0000000000000000000000000000000000000000000000000000000000002550000000000000000000000000000000000000000000000000000000000000000000052
:4058000000000000000000000000000000000000000000000000000000000000EC80FF1F385500004C560000555700005557000055570000555700005557000055570000A7
:40584000555700005557000055570000FFFFFFFFFFFFFFFFFFFFFFFFFFFF000000000000000000000000000000000000000000000000000000000000000000000000000032
:4058800000000000000000000000000000000000000000000000000000000000000000000000000000000000000000000000000000000000000000000000000000000000E8
:4058C00000000000000000000000000000000000000000000000000000000000000000000000000000000000000000000000000000000000000000000000000000000000A8
:405900000000000000000000000000000000000000000000000000000000000000000000000000000000000000000000000000000000000000000000000000000000000067
:405940000000000000000000000000000000000000000000000000000000000000000000000000000000000000000000000000000000000000000000000000000000000027
:020000040003F7
:0200000480007A
:400000000145004001520040015A00400A020140080301400305014001070140011501400417014002190140011B01400640014007410140054201400243014005470140CA
:400040000848014002490140064C0140014D014002500140025101407E027C409F011004120116022A053002320434013E1458045F010E800F2014081E801F288310C230E2
:40008000C4409C08AB08AF209C08EE0280089C08E404EE0AE404EE0AEE02338836403B083F20CC70CE60074083409708A640A798C020E480A640A788AB10AF04EE90A64070
:4000C000A78808080F403320C20CCC0824028001A708AE40AF80C820E420EE50AF08EE401F108320A720AC08AF40C601AF1000010801003A100A00000200020000000000D7
:40010000050000004000000000000000C0000000000B0B0000000000010018010000000000000000000000000000000000000000000000000000000000000000000000008A
:40014000000000000000000000000000000000000000000000000000000000000000000000000000000000000000000000000000000000000000000000000000000000007F
:40018000000000000000000000000000000000000000000000000000000000000000000000000000000000000000000000000000000000000000000000000000000000003F
:4001C00000000000000000000000000000000000000000000000000000000000000000000000000000000000000000000000000000000000000000000000000000000000FF
:4002000000000000000000000000000000000000000000000000000000000000000000000000000000000000000000000000000000000000000000000000000000000000BE
:0200000490006A
:0400000000004005B7
:0200000490105A
:04000000BC90ACAF55
:0200000490303A
:020000003CFDC5
:0200000490402A
:4000000000000000000000000000000000000000000000000000000000000000000000000000000000000000000000000000000000000000000000000000000000000000C0
:400040000000000000000000000000000000000000000000000000000000000000000000000000000000000000000000000000000000000000000000000000000000000080
:400080000000000000000000000000000000000000000000000000000000000000000000000000000000000000000000000000000000000000000000000000000000000040
:4000C0000000000000000000000000000000000000000000000000000000000000000000000000000000000000000000000000000000000000000000000000000000000000
:0200000490501A
:0C00000000012E16106900012E384D661C
:00000001FF